193131225000168      642290010109202007473735017157  93131225000168         PBS                                      
293131225000168      6422900178986402905530000000009CX00000000002576000000000000000001UN00000000000000000000000000000000000000000025725    
293131225000168      64229001257220       0000000030CX00000000000136000000000000000001UN00000000000000000000000000000000000000000025722    
293131225000168      64229001258430       0000000053CX00000000000087000000000000000001UN00000000000000000000000000000000000000000025843    
293131225000168      64229001257230       0000000012CX00000000000136000000000000000001UN00000000000000000000000000000000000000000025723    
293131225000168      64229001267410       0000000020CX00000000000087000000000000000001UN00000000000000000000000000000000000000000026741    
293131225000168      64229001257240       0000000009CX00000000000136000000000000000001UN00000000000000000000000000000000000000000025724    
293131225000168      64229001258440       0000000018CX00000000000087000000000000000001UN00000000000000000000000000000000000000000025844    
