102552557000160     1982640020309202007473735017157  02552557000160         PBS                                      
202552557000160     198264002126120       0000000017CX00000000000102000000000000000001UN00000000000000000000000000000000000000000012612    
202552557000160     198264002171000       0000000021CX00000000000102000000000000000001UN00000000000000000000000000000000000000000017100    
202552557000160     198264002171020       0000000025CX00000000001086000000000000000001CX00000000000000000000000000000000000000000017102    
202552557000160     198264002             0000000031CX00000000000784000000000000000001UN00000000000000000000000000000000000000000024151    
202552557000160     19826400249270        0000000020CX00000000000762000000000000000001UN0000000000000000000000000000000000000000004927     
202552557000160     198264002175140       0000000016CX00000000000762000000000000000001CX00000000000000000000000000000000000000000017514    
202552557000160     198264002175150       0000000018CX00000000000762000000000000000001CX00000000000000000000000000000000000000000017515    
