127916244000175       88120010209202007473735017157  27916244000175         PBS                                      
227916244000175       881200149220        0000000052CX00000000000712000000000000000001UN0000000000000000000000000000000000000000004922     
227916244000175       881200136790        0000000034CX00000000000712000000000000000001UN0000000000000000000000000000000000000000003679     
227916244000175       8812001105200       0000000047CX00000000000714000000000000000001UN00000000000000000000000000000000000000000010520    
227916244000175       8812001183820       0000000051CX00000000000542000000000000000001CX00000000000000000000000000000000000000000018382    
227916244000175       8812001177140       0000000059CX00000000000424000000000000000001CX00000000000000000000000000000000000000000017714    
227916244000175       8812001111680       0000000069CX00000000000538000000000000000001UN00000000000000000000000000000000000000000011168    
227916244000175       8812001126100       0000000059CX00000000000538000000000000000001UN00000000000000000000000000000000000000000012610    
227916244000175       8812001183780       0000000026CX00000000000039000000000000000001UN00000000000000000000000000000000000000000018378    
227916244000175       881200110860        0000000027CX00000000000039000000000000000001UN0000000000000000000000000000000000000000001086     
227916244000175       8812001273180       0000000021CX00000000001314000000000000000001UN00000000000000000000000000000000000000000027318    
227916244000175       8812001273190       0000000021CX00000000000252000000000000000001UN00000000000000000000000000000000000000000027319    
227916244000175       8812001273200       0000000021CX00000000000126000000000000000001UN00000000000000000000000000000000000000000027320    
227916244000175       8812001127590       0000000047CX00000000000057000000000000000001UN00000000000000000000000000000000000000000012759    
