104902760000145     4924830010209202007473735017157  04902760000145  IWZ8137PBS                                      
204902760000145     492483001258310       0000000025CX00000000000602000000000000000001UN00000000000000000000000000000000000000000025831    
204902760000145     492483001258320       0000000022CX00000000000336000000000000000001UN00000000000000000000000000000000000000000025832    
204902760000145     492483001258330       0000000030CX00000000000894000000000000000001UN00000000000000000000000000000000000000000025833    
204902760000145     492483001             0000000030CX00000000000298000000000000000001UN00000000000000000000000000000000000000000028243    
204902760000145     492483001266320       0000000031CX00000000000234000000000000000001CX00000000000000000000000000000000000000000026632    
