1  1177680000000007473735017157  1009202007473735006708  SIM REDE DE POSTOS LTDA  FL66 TRI  RUA VIA OESTE  III POLO PETRO PASSO RASO                    5134579676     95850000  1490044156     
2  117768       1045500000000001CX00000000000000PBS000000   10455    
2  117768       1048000000000001CX00000000000000PBS000000   10480    
2  117768       1052000000000001CX00000000000000PBS000000   10520    
2  117768       1098100000000001CX00000000000000PBS000000   10981    
2  117768       1275900000000001CX00000000000000PBS000000   12759    
2  117768       1642300000000001CX00000000000000PBS000000   16423    
2  117768       2575900000000001CX00000000000000PBS000000   25759    
2  117768       2576100000000001CX00000000000000PBS000000   25761    
2  11776878989671020410000000001CX00000000000000PBS000000   29029    
2  11776878986880700250000000001CX00000000000000PBS000000   26736    
2  11776878986880701170000000001CX00000000000000PBS000000   28236    
2  11776878986880700870000000001CX00000000000000PBS000000   28238    
1  1177690000000007473735017157  1009202007473735013240  SIM REDE DE POSTOS LTDA  S SEBAST  RUA ESTRADA RS 1227700 KM 7   CONCEICAO                     5135361158     95760000  1280057510     
2  117769        367900000000002CX00000000000000PBS000000   3679     
2  117769        492200000000002CX00000000000000PBS000000   4922     
2  117769        492700000000002CX00000000000000PBS000000   4927     
2  117769        639500000000001CX00000000000000PBS000000   6395     
2  117769       1045500000000003CX00000000000000PBS000000   10455    
2  117769       1048000000000002CX00000000000000PBS000000   10480    
2  117769       1052000000000002CX00000000000000PBS000000   10520    
2  117769       1098100000000003CX00000000000000PBS000000   10981    
2  117769       1116800000000003CX00000000000000PBS000000   11168    
2  117769       1261000000000002CX00000000000000PBS000000   12610    
2  117769       1275900000000002CX00000000000000PBS000000   12759    
2  117769       1642300000000003CX00000000000000PBS000000   16423    
2  117769       1751400000000001CX00000000000000PBS000000   17514    
2  117769       1751500000000001CX00000000000000PBS000000   17515    
2  117769       1771400000000002CX00000000000000PBS000000   17714    
2  117769       1838200000000004CX00000000000000PBS000000   18382    
2  117769       1933000000000002CX00000000000000PBS000000   19330    
2  117769       2572200000000006CX00000000000000PBS000000   25722    
2  117769       2572300000000003CX00000000000000PBS000000   25723    
2  117769       2572600000000002CX00000000000000PBS000000   25726    
2  117769       2575900000000001CX00000000000000PBS000000   25759    
2  117769       2576100000000001CX00000000000000PBS000000   25761    
2  117769       2583300000000001CX00000000000000PBS000000   25833    
2  117769             0000000003CX00000000000000PBS000000   28243    
2  117769       1261200000000001CX00000000000000PBS000000   12612    
2  117769       1710000000000001CX00000000000000PBS000000   17100    
2  117769       1710200000000001CX00000000000000PBS000000   17102    
2  117769             0000000003CX00000000000000PBS000000   24151    
2  117769       2583100000000001CX00000000000000PBS000000   25831    
2  117769       2731800000000002CX00000000000000PBS000000   27318    
2  117769       2731900000000002CX00000000000000PBS000000   27319    
2  117769       2732000000000004CX00000000000000PBS000000   27320    
